{
  "contractName": "ProofOfExistence1",
  "abi": [
    {
      "inputs": [],
      "name": "proof",
      "outputs": [
        {
          "internalType": "bytes32",
          "name": "",
          "type": "bytes32"
        }
      ],
      "stateMutability": "view",
      "type": "function"
    },
    {
      "inputs": [
        {
          "internalType": "string",
          "name": "document",
          "type": "string"
        }
      ],
      "name": "notarize",
      "outputs": [],
      "stateMutability": "nonpayable",
      "type": "function"
    },
    {
      "inputs": [
        {
          "internalType": "string",
          "name": "document",
          "type": "string"
        }
      ],
      "name": "proofFor",
      "outputs": [
        {
          "internalType": "bytes32",
          "name": "",
          "type": "bytes32"
        }
      ],
      "stateMutability": "pure",
      "type": "function"
    }
  ],
  "bytecode": "0x608060405234801561001057600080fd5b5061040f806100206000396000f3fe608060405234801561001057600080fd5b50600436106100415760003560e01c80637183616c14610046578063f6c1acdf14610062578063faf924cf14610092575b600080fd5b610060600480360381019061005b919061027b565b6100b0565b005b61007c6004803603810190610077919061027b565b6100c2565b60405161008991906102dd565b60405180910390f35b61009a61011b565b6040516100a791906102dd565b60405180910390f35b6100b9816100c2565b60008190555050565b60006002826040516100d49190610369565b602060405180830381855afa1580156100f1573d6000803e3d6000fd5b5050506040513d601f19601f8201168201806040525081019061011491906103ac565b9050919050565b60005481565b6000604051905090565b600080fd5b600080fd5b600080fd5b600080fd5b6000601f19601f8301169050919050565b7f4e487b7100000000000000000000000000000000000000000000000000000000600052604160045260246000fd5b6101888261013f565b810181811067ffffffffffffffff821117156101a7576101a6610150565b5b80604052505050565b60006101ba610121565b90506101c6828261017f565b919050565b600067ffffffffffffffff8211156101e6576101e5610150565b5b6101ef8261013f565b9050602081019050919050565b82818337600083830152505050565b600061021e610219846101cb565b6101b0565b90508281526020810184848401111561023a5761023961013a565b5b6102458482856101fc565b509392505050565b600082601f83011261026257610261610135565b5b813561027284826020860161020b565b91505092915050565b6000602082840312156102915761029061012b565b5b600082013567ffffffffffffffff8111156102af576102ae610130565b5b6102bb8482850161024d565b91505092915050565b6000819050919050565b6102d7816102c4565b82525050565b60006020820190506102f260008301846102ce565b92915050565b600081519050919050565b600081905092915050565b60005b8381101561032c578082015181840152602081019050610311565b60008484015250505050565b6000610343826102f8565b61034d8185610303565b935061035d81856020860161030e565b80840191505092915050565b60006103758284610338565b915081905092915050565b610389816102c4565b811461039457600080fd5b50565b6000815190506103a681610380565b92915050565b6000602082840312156103c2576103c161012b565b5b60006103d084828501610397565b9150509291505056fea2646970667358221220ce8b4db549b925488e4c09cc24043f1274afb100767411b04ef1b726f1b816bb64736f6c63430008110033",
  "immutableReferences": {},
  "source": "// SPDX-License-Identifier: MIT\npragma solidity >=0.4.22 <0.9.0;\n\n// proof of existence contract, version 1\ncontract ProofOfExistence1 {\n  bytes32 public proof;\n\n  function notarize(string memory document) public {\n    proof = proofFor(document);\n  }\n\n  function proofFor(string memory document) public pure returns (bytes32) {\n    return sha256(bytes (document));\n  }\n}",
  "sourcePath": "/media/overseer/LORDS_BLADE/programming_languages/javascript/fontes/openzeppeling/the-hitchhikers-guide-to-smart-contracts-in-ethereum/contracts/ProofOfExistence1.sol",
  "compiler": {
    "name": "solc",
    "version": "0.8.17+commit.8df45f5f.Emscripten.clang"
  },
  "schemaVersion": "3.4.10",
  "updatedAt": "2022-11-23T11:50:20.991Z",
  "devdoc": {
    "kind": "dev",
    "methods": {},
    "version": 1
  },
  "userdoc": {
    "kind": "user",
    "methods": {},
    "version": 1
  }
}